:100000000C942A000C94B4050C94E7050C941A0681
:100010000C943C000C943C000C943C000C943C0070
:100020000C943C000C943C000C943C000C943C0060
:100030000C943C000C943C000C943C000C943C0050
:100040000C943C000C943C000C943C000C943C0040
:100050000C943C0011241FBECFE5D8E0DEBFCDBF1D
:1000600010E0A0E6B0E001C01D92A936B107E1F7AB
:100070000E94A5060C94C8060C940000DF93CF9351
:1000800000D000D000D0CDB7DEB789836A834B8320
:100090008A81883008F0E0C08B81882321F08B8131
:1000A000813009F0D7C08981282F30E03E832D832D
:1000B0008D819E818130910509F443C02D813E815F
:1000C000223031052CF48D819E81009771F0BDC0E6
:1000D0002D813E812230310509F45FC08D819E81E2
:1000E0008330910509F485C0B0C08B818130A1F4C3
:1000F000ABE3B0E0EBE3F0E08081482F8A81282F6A
:1001000030E081E090E0022E02C0880F991F0A942F
:10011000E2F7842B8C939BC0ABE3B0E0EBE3F0E021
:100120008081482F8A81282F30E081E090E0022EE4
:1001300002C0880F991F0A94E2F7809584238C935C
:1001400086C08B818130A1F4A8E3B0E0E8E3F0E061
:100150008081482F8A81282F30E081E090E0022EB4
:1001600002C0880F991F0A94E2F7842B8C936FC00A
:10017000A8E3B0E0E8E3F0E08081482F8A81282FEF
:1001800030E081E090E0022E02C0880F991F0A94AF
:10019000E2F7809584238C935AC08B818130A1F43F
:1001A000A5E3B0E0E5E3F0E08081482F8A81282FC5
:1001B00030E081E090E0022E02C0880F991F0A947F
:1001C000E2F7842B8C9343C0A5E3B0E0E5E3F0E0D5
:1001D0008081482F8A81282F30E081E090E0022E34
:1001E00002C0880F991F0A94E2F7809584238C93AC
:1001F0002EC08B818130A1F4A2E3B0E0E2E3F0E015
:100200008081482F8A81282F30E081E090E0022E03
:1002100002C0880F991F0A94E2F7842B8C9317C0B1
:10022000A2E3B0E0E2E3F0E08081482F8A81282F4A
:1002300030E081E090E0022E02C0880F991F0A94FE
:10024000E2F7809584238C9302C01C8206C091E063
:100250009C8303C01C8201C01C828C8126960FB631
:10026000F894DEBF0FBECDBFCF91DF910895DF932D
:10027000CF9300D000D000D0CDB7DEB789836A839A
:100280004B838A81883008F0E0C08B81882321F07D
:100290008B81813009F0D7C08981282F30E03E83DF
:1002A0002D838D819E818130910509F443C02D817C
:1002B0003E81223031052CF48D819E81009771F0B2
:1002C000BDC02D813E812230310509F45FC08D8192
:1002D0009E818330910509F485C0B0C08B81813047
:1002E000A1F4AAE3B0E0EAE3F0E08081482F8A813C
:1002F000282F30E081E090E0022E02C0880F991F85
:100300000A94E2F7842B8C939BC0AAE3B0E0EAE363
:10031000F0E08081482F8A81282F30E081E090E052
:10032000022E02C0880F991F0A94E2F78095842359
:100330008C9386C08B818130A1F4A7E3B0E0E7E322
:10034000F0E08081482F8A81282F30E081E090E022
:10035000022E02C0880F991F0A94E2F7842B8C9317
:100360006FC0A7E3B0E0E7E3F0E08081482F8A8127
:10037000282F30E081E090E0022E02C0880F991F04
:100380000A94E2F7809584238C935AC08B81813044
:10039000A1F4A4E3B0E0E4E3F0E08081482F8A8197
:1003A000282F30E081E090E0022E02C0880F991FD4
:1003B0000A94E2F7842B8C9343C0A4E3B0E0E4E317
:1003C000F0E08081482F8A81282F30E081E090E0A2
:1003D000022E02C0880F991F0A94E2F780958423A9
:1003E0008C932EC08B818130A1F4A1E3B0E0E1E3D6
:1003F000F0E08081482F8A81282F30E081E090E072
:10040000022E02C0880F991F0A94E2F7842B8C9366
:1004100017C0A1E3B0E0E1E3F0E08081482F8A81DA
:10042000282F30E081E090E0022E02C0880F991F53
:100430000A94E2F7809584238C9302C01C8206C044
:1004400091E09C8303C01C8201C01C828C81269693
:100450000FB6F894DEBF0FBECDBFCF91DF910895E8
:10046000DF93CF9300D000D00F92CDB7DEB7898352
:100470006A838981282F30E03D832C838C819D8184
:1004800081309105D1F02C813D81223031052CF451
:100490008C819D81009761F01FC02C813D812230AD
:1004A000310581F08C819D818330910581F014C0EC
:1004B000EBE3F0E08A81808311C0E8E3F0E08A8119
:1004C00080830CC0E5E3F0E08A81808307C0E2E32B
:1004D000F0E08A81808302C01B8202C091E09B838E
:1004E0008B810F900F900F900F900F90CF91DF9115
:1004F0000895DF93CF9300D000D00F92CDB7DEB731
:1005000089836A838981282F30E03D832C838C8105
:100510009D8181309105D1F02C813D8122303105C2
:100520002CF48C819D81009761F01FC02C813D814E
:100530002230310581F08C819D818330910581F0DD
:1005400014C0EAE3F0E08A81808311C0E7E3F0E0C1
:100550008A8180830CC0E4E3F0E08A81808307C055
:10056000E1E3F0E08A81808302C01B8202C091E057
:100570009B838B810F900F900F900F900F90CF91D6
:10058000DF910895DF93CF93CDB7DEB727970FB6EE
:10059000F894DEBF0FBECDBF89836A835C834B8333
:1005A0008981282F30E03F832E834E815F81413047
:1005B000510559F18E819F818230910534F42E814D
:1005C0003F812115310569F05CC04E815F81423069
:1005D000510579F18E819F818330910509F43DC0E9
:1005E00050C0E9E3F0E08081282F30E08A81882F35
:1005F00090E0A90102C0559547958A95E2F7CA0196
:100600008170EB81FC8180833EC0E6E3F0E0808175
:10061000282F30E08A81882F90E0A90102C05595EB
:1006200047958A95E2F7CA018170EB81FC8180834E
:100630002AC0E3E3F0E08081282F30E08A81882F10
:1006400090E0A90102C0559547958A95E2F7CA0145
:100650008170EB81FC81808316C0E0E3F0E0808153
:10066000282F30E08A81882F90E0A90102C055959B
:1006700047958A95E2F7CA018170EB81FC818083FE
:1006800002C01D8202C051E05D838D8127960FB6A6
:10069000F894DEBF0FBECDBFCF91DF910895DF93F9
:1006A000CF9300D000D000D0CDB7DEB789837B8355
:1006B0006A838981282F30E03E832D838D819E813E
:1006C00081309105E1F02D813E81223031052CF4FD
:1006D0008D819E81009761F027C02D813E8122305F
:1006E0003105A1F08D819E8183309105B1F01CC050
:1006F000EBE3F0E08081EA81FB81808317C0E8E3CF
:10070000F0E08081EA81FB81808310C0E5E3F0E0C6
:100710008081EA81FB81808309C0E2E3F0E080818F
:10072000EA81FB81808302C01C8202C091E09C832D
:100730008C8126960FB6F894DEBF0FBECDBFCF9149
:10074000DF910895DF93CF93CDB7DEB7A5E5B0E095
:10075000E5E5F0E080818E7F8C93A5E5B0E0E5E5EE
:10076000F0E0808182608C93ABE5B0E0EBE5F0E0F7
:10077000808180648C93CF91DF910895DF93CF9334
:10078000CDB7DEB7A5E5B0E0E5E5F0E080818B7F91
:100790008C93A5E5B0E0E5E5F0E0808188608C937E
:1007A000ABE5B0E0EBE5F0E0808180688C93CF9121
:1007B000DF910895DF93CF93CDB7DEB7A5E5B0E025
:1007C000E5E5F0E080818F7B8C93ABE5B0E0EBE575
:1007D000F0E0808180628C93CF91DF910895DF9368
:1007E000CF9300D000D0CDB7DEB78A8381E0898374
:1007F0008A81282F30E03C832B838B819C8182303F
:10080000910529F12B813C812330310534F48B8112
:100810009C818130910561F047C02B813C81233060
:10082000310521F18B819C818430910571F13CC0AF
:10083000A5E5B0E0E5E5F0E080818E7F8C93A5E54D
:10084000B0E0E5E5F0E080818D7F8C932EC0A5E5DA
:10085000B0E0E5E5F0E0808181608C93A5E5B0E053
:10086000E5E5F0E080818D7F8C931FC0A5E5B0E0C9
:10087000E5E5F0E080818E7F8C93A5E5B0E0E5E5CD
:10088000F0E0808182608C9310C0A5E5B0E0E5E5E2
:10089000F0E0808181608C93A5E5B0E0E5E5F0E0D3
:1008A000808182608C9301C0198289810F900F90A2
:1008B0000F900F90CF91DF910895DF93CF9300D0E9
:1008C00000D0CDB7DEB78A8381E089838A81282F63
:1008D00030E03C832B838B819C818230910529F110
:1008E0002B813C812330310534F48B819C81813014
:1008F000910561F047C02B813C812330310521F106
:100900008B819C818430910571F13CC0A5E5B0E0FC
:10091000E5E5F0E080818B7F8C93A5E5B0E0E5E52F
:10092000F0E08081877F8C932EC0A5E5B0E0E5E5FF
:10093000F0E0808184608C93A5E5B0E0E5E5F0E02F
:100940008081877F8C931FC0A5E5B0E0E5E5F0E0EE
:1009500080818B7F8C93A5E5B0E0E5E5F0E08081B8
:1009600088608C9310C0A5E5B0E0E5E5F0E08081FB
:1009700084608C93A5E5B0E0E5E5F0E080818860D7
:100980008C9301C0198289810F900F900F900F9066
:10099000CF91DF910895DF93CF9300D000D0CDB7F2
:1009A000DEB78A8381E089838A81282F30E03C8307
:1009B0002B838B819C818330910531F02B813C818D
:1009C0002430310549F010C0A5E5B0E0E5E5F0E0E0
:1009D00080818F7B8C9309C0A5E5B0E0E5E5F0E070
:1009E000808180648C9301C0198289810F900F905F
:1009F0000F900F90CF91DF910895DF93CF9300D0A8
:100A000000D00F92CDB7DEB789836A838981282F02
:100A100030E03C832B838B819C8183309105E9F00E
:100A20002B813C812530310559F18B819C818130AE
:100A30009105C1F58A81813041F4ABE5B0E0EBE589
:100A4000F0E0808180648C932DC0ABE5B0E0EBE5F5
:100A5000F0E080818F7B8C9325C08A81813041F4C6
:100A6000ABE5B0E0EBE5F0E0808180688C931AC0E4
:100A7000ABE5B0E0EBE5F0E080818F778C9312C0BE
:100A80008A81813041F4ABE5B0E0EBE5F0E08081B4
:100A900080628C9307C0ABE5B0E0EBE5F0E08081CD
:100AA0008F7D8C930F900F900F900F900F90CF91A0
:100AB000DF910895DF93CF9300D00F92CDB7DEB7CB
:100AC0009B838A8381E089838A819B81009739F0A7
:100AD0008A819B81909361008093600002C082E0D4
:100AE000898389810F900F900F90CF91DF910895A6
:100AF000DF93CF9300D00F92CDB7DEB79B838A836D
:100B000081E089838A819B81009739F08A819B816A
:100B1000909363008093620002C082E089838981A0
:100B20000F900F900F90CF91DF910895DF93CF93A7
:100B300000D00F92CDB7DEB79B838A8381E0898393
:100B40008A819B81009739F08A819B81909365000F
:100B50008093640002C082E0898389810F900F90A6
:100B60000F90CF91DF9108951F920F920FB60F92C1
:100B700011242F933F934F935F936F937F938F93A2
:100B80009F93AF93BF93EF93FF93DF93CF93CDB733
:100B9000DEB78091600090916100009729F0E091AC
:100BA0006000F09161000995CF91DF91FF91EF9185
:100BB000BF91AF919F918F917F916F915F914F9175
:100BC0003F912F910F900FBE0F901F9018951F927D
:100BD0000F920FB60F9211242F933F934F935F9371
:100BE0006F937F938F939F93AF93BF93EF93FF93F5
:100BF000DF93CF93CDB7DEB7809162009091630011
:100C0000009729F0E0916200F09163000995CF917F
:100C1000DF91FF91EF91BF91AF919F918F917F9164
:100C20006F915F914F913F912F910F900FBE0F9059
:100C30001F9018951F920F920FB60F9211242F93A9
:100C40003F934F935F936F937F938F939F93AF9354
:100C5000BF93EF93FF93DF93CF93CDB7DEB7809130
:100C6000640090916500009729F0E0916400F09194
:100C700065000995CF91DF91FF91EF91BF91AF9101
:100C80009F918F917F916F915F914F913F912F91A4
:100C90000F900FBE0F901F901895DF93CF93CDB795
:100CA000DEB7AFE5B0E0EFE5F0E0808180688C93DF
:100CB000CF91DF910895DF93CF93CDB7DEB7AFE546
:100CC000B0E0EFE5F0E080818F778C93CF91DF91FA
:100CD0000895DF93CF93CDB7DEB79091660081E0A2
:100CE0008927809366009091660082E060E0492F3A
:100CF0000E943E00CF91DF910895DF93CF93CDB74F
:100D0000DEB79091670081E089278093670090911A
:100D1000670082E061E0492F0E943E00CF91DF91A1
:100D20000895DF93CF93CDB7DEB79091680081E04F
:100D30008927809368009091680082E062E0492FE3
:100D40000E943E00CF91DF910895DF93CF93CDB7FE
:100D5000DEB783E062E040E00E94370183E062E0BA
:100D600041E00E943E0082E061E00E9479020E9420
:100D7000A20389E696E00E945A058DE796E00E945C
:100D8000780581E996E00E9496050E944D06FFCF06
:040D9000F894FFCF05
:00000001FF
